:020000040800F2
:10000000000005209D050008DD1F0008DF1F000817
:10001000E11F0008E31F0008E51F000800000000C2
:100020000000000000000000000000001172000845
:10003000E71F000800000000A17200082B6B0008F9
:10004000ED050008ED050008ED050008ED050008C8
:10005000ED050008ED050008ED050008ED050008B8
:10006000ED050008ED050008ED050008ED050008A8
:10007000ED050008ED050008ED050008ED05000898
:10008000ED050008ED050008ED050008ED05000888
:10009000ED050008ED050008ED050008ED05000878
:1000A000ED050008ED050008ED050008ED05000868
:1000B000ED050008ED050008ED050008ED05000858
:1000C000ED050008ED050008ED050008ED05000848
:1000D000ED050008ED050008ED050008ED05000838
:1000E000ED050008ED050008ED050008ED05000828
:1000F000ED050008ED050008ED050008ED05000818
:10010000ED050008ED050008ED050008ED05000807
:10011000ED050008ED050008E91F0008ED050008E1
:10012000ED050008ED050008ED050008ED050008E7
:10013000ED050008ED050008ED050008ED050008D7
:10014000ED050008ED050008ED050008ED050008C7
:10015000ED050008ED050008ED050008ED050008B7
:10016000ED050008ED050008ED050008ED050008A7
:10017000ED050008ED050008ED0500080000000091
:10018000ED050008ED050008ED050008ED05000887
:10019000ED050008ED050008ED050008ED05000877
:1001A000F51F0008ED05000801200008ED05000816
:0401B0000D20000816
:1001C00010B5054C237833B9044B13B10448AFF391
:1001D00000800123237010BD4001002000000000BA
:1001E00040DF010808B5034B1BB103490348AFF3D7
:1001F000008008BD000000004401002040DF01082D
:1002000001F0FF01102A2BDB10F0070F08D010F8C7
:10021000013B013A8B422DD010F0070F42B3F6D1CB
:10022000F0B441EA012141EA014122F007047FF0E4
:1002300000070023F0E80256083C85EA010586EA3B
:10024000010685FA47F5A3FA87F586FA47F6A5FA77
:1002500087F68EB9EED1F0BC01F0FF0102F0070283
:1002600032B110F8013B013A83EA010313B1F8D12E
:100270000020704701387047002D06BF354603380F
:10028000073815F0010F07D1013015F4807F02BF48
:10029000013015F4C03F0130F0BC0138704700BF99
:1002A00053B94AB9002908BF00281CBF4FF0FF31DD
:1002B0004FF0FF3000F070B9ADF1080C6DE904CEDD
:1002C00000F006F8DDF804E0DDE9022304B0704731
:1002D0002DE9F047089E0D4604460F46002B4AD1F3
:1002E0008A42944665D9B2FA82F343B102FA03FC1A
:1002F000C3F120029F4020FA02F217439C404FEACC
:100300001C4E1FFA8CF5B7FBFEF1220C0EFB117789
:1003100042EA074201FB05F090420AD91CEB0202B7
:1003200001F1FF3780F01C81904240F219810239BF
:100330006244121AA4B2B2FBFEF00EFB102244EA91
:10034000024400FB05F5A5420AD91CEB040400F1A8
:10035000FF3280F00781A54240F2048164440238F4
:1003600040EA0140641B00211EB1DC400023C6E9C5
:100370000043BDE8F0878B4208D9002E00F0ED80E5
:100380000021C6E900050846BDE8F087B3FA83F10D
:10039000002949D1AB4202D3824200F2F880841A8C
:1003A00065EB030201201746002EE2D0C6E90047A4
:1003B000DFE702B9FFDEB2FA82F3002B40F0908053
:1003C0008A1A4FEA1C471FFA8CFE0121B2FBF7F58F
:1003D00007FB1520220C42EA00420EFB05F090427A
:1003E00008D91CEB020205F1FF3802D2904200F25C
:1003F000CB804546121AA4B2B2FBF7F007FB1022DD
:1004000044EA02440EFB00FEA64508D91CEB040496
:1004100000F1FF3202D2A64500F2BB801046A4EBE9
:100420000E0440EA05409FE7C1F120078B4022FA05
:1004300007FC4CEA030C05FA01F420FA07F3FD402F
:100440004FEA1C492343B5FBF9F81FFA8CFE09FB60
:1004500018551C0C44EA054408FB0EF5A54202FAA7
:1004600001F200FA01F00BD91CEB040408F1FF3A89
:1004700080F08880A54240F28580A8F1020864449B
:10048000641B9DB2B4FBF9F309FB134445EA044431
:1004900003FB0EFEA64508D91CEB040403F1FF354F
:1004A0006CD2A6456AD9023B644443EA0843A3FBE5
:1004B0000295A4EB0E04AC42C846AE4656D353D0C8
:1004C00056B1B0EB080264EB0E0404FA07F7CA4019
:1004D000CC401743C6E9007418460021BDE8F087F8
:1004E000C3F1200102FA03FC20FA01F225FA01F11E
:1004F0009D402A434FEA1C471FFA8CFEB1FBF7F0E0
:1005000007FB1015110C41EA054100FB0EF58D4269
:1005100004FA03F408D91CEB010100F1FF382FD2D3
:100520008D422DD902386144491B92B2B1FBF7F5D7
:1005300007FB151142EA014205FB0EF1914208D971
:100540001CEB020205F1FF3816D2914214D9023D8C
:100550006244521A45EA004138E73146304608E71E
:100560003946E6E61046FBE64845A9D2B9EB020853
:1005700065EB0C0E013BA3E74546EAE72B4694E703
:100580004046D1E7D0467BE7023D624432E7084669
:100590000AE76444023842E7704700BFDFF834D00E
:1005A000002103E00C4B5B58435004310B480C4BCB
:1005B00042189A42F6D30B4A02E0002342F8043B69
:1005C000094B9A42F9D303F0A9FA1CF03DFF00F061
:1005D000D7FF704700000520A8F8010800000020A0
:1005E000400100204001002084B10020FEE7704758
:1005F00008B500F08BFEBDE8084000F017BE00F023
:1006000087BE0021084602F0F3BD002002F02ABE9A
:1006100040687047416070474FF0E022D2F8FC3DDF
:1006200043F08073C2F8FC3DA2F55042136843F0DA
:10063000010313607047511A01EB5301B1FBF3F052
:1006400070470000014B5868704700BF001000E081
:10065000704710B50C2104461CF01AFC204610BD52
:10066000036810B51B69044631B19847A2686368F6
:100670009B1A1844606010BD9847A060FBE7704764
:100680007047000008B5FFF7BCFF024B00221A605C
:1006900008BD00BF5C01002070B50D46FFF7B5FF37
:1006A0000B4A937856781178D370C4B213F00100D6
:1006B0009670517014700AD016F0010007D011F036
:1006C000010004D0E3075ABF01202870002070BD4C
:1006D0005C01002010B5042104461CF0D9FB204623
:1006E00010BD704710B5042104461CF0D1FB204614
:1006F00010BD000008B54FF4F0714FF4487003F0DE
:1007000061F9074B10B901221A7008BD1B78002B44
:10071000FBD1044B044A054827211CF0E7FB00BF2E
:1007200060010020DCDF0108EFDF010819E00108AB
:100730007FB50B4B1C780E4615465CB101A803F043
:1007400079F99DF8043043B1BDF806303360BDF847
:100750000A302B60204604B070BD1C46FAE700BF8B
:1007600060010020032823D8DFE800F0020B1219F3
:10077000104B1A68B2FA82F2520904210E4804F0B2
:10078000E9B90C4B5A68B2FA82F252094021F5E7F6
:10079000084B9A68B2FA82F252090221EEE7054B41
:1007A0000648DA68B2FA82F252094FF48051E6E75D
:1007B000704700BF640100200000024000180240A2
:1007C000032823D8DFE800F0020B1219104B1A6837
:1007D000003A18BF012204210E4804F0BBB90C4BAB
:1007E0005A68003A18BF01224021F5E7084B9A6881
:1007F000003A18BF01220221EEE7054B0648DA68ED
:10080000003A18BF01224FF48051E6E7704700BF5D
:1008100064010020000002400018024003280FD8A5
:10082000DFE800F00206080A0421064804F097B940
:100830004021FAE70221F8E703484FF48051F5E739
:10084000704700BF000002400018024008B50328AE
:1008500013D8DFE800F0020A0C0E0421084804F067
:1008600073F9431E5842584108BD4021F6E7022162
:10087000F4E704484FF48051F1E70020F1E700BFAE
:10088000000002400018024070B5084D0024012607
:10089000E0B2FFF7DBFF18B12B68012B18BF2E6009
:1008A0000134052C05F10405F2D170BD640100206E
:1008B000012380F8781080F8793070470020704765
:1008C000034B4164003918BF01211970704700BF04
:1008D00053A5002000207047836B0BB108461847D2
:1008E00070474FF6FF707047406803689B69184770
:1008F00070477047014B1868704700BF74010020B3
:100900007047000038B50446094DFFF7BDFF20468B
:1009100000F0ACFD002384F84A302846FFF77CFE47
:10092000012384F87030034B2561636138BD00BF3B
:10093000800100207C0100200368044607B5D3F83D
:1009400080309847236820469B6F984700F02EFA26
:10095000236820461B6F98470021064800912923F1
:10096000152203F0E0FE00F021FA236820461B6FF9
:100970009847F8E77413002010B5044609F05CFAB4
:1009800023682046D3F8AC30BDE81040184700F08B
:100990006CBD00F082BD00F082BD00F055BD00F0DE
:1009A0005BBD00F085BD0000024B00221A7008F00C
:1009B000EBBC00BF1400002010B5044608F0F0FCAA
:1009C00094F84B3013B1024B01221A7010BD00BFD6
:1009D0001400002008F09CBC10B57C2104461CF0DB
:1009E00057FA204610BD90F87A301BB14068036872
:1009F0001B6818471846704710B590F8341090F8E7
:100A000078400C4B8C421A7809D03AB90A4A0B4903
:100A10001488088810800C8001221A7010BD002AEA
:100A2000FCD0054A05491488088810800C800022F3
:100A3000F3E700BF4CA5002048A500204AA50020F0
:100A400008B5094B1B888B4203D8084B1B8893427F
:100A500005D9074B074A08489E211CF047FA074B67
:100A60001980074B1A8008BD48A500204AA5002020
:100A700094E00108F7E001083AE101084EA50020E2
:100A800050A5002070B50D4619460B4B1D6035B9B9
:100A90000A4B0B4A0B4840F2D2211CF027FAC0E95E
:100AA0000F52094B003A18BF01221A700368BDE8C3
:100AB0007040D3F88C301847740100207FE10108A2
:100AC000B7E101083AE1010852A50020012807B565
:100AD00003460AD84B7800930B780848152200216A
:100AE00003F021FE03B05DF804FB01910A5C009263
:100AF00000213922014803F027FEF3E77413002098
:100B000037B50B4A0B4C0223152513705570019213
:100B10004422009200213922204603F015FE0021D4
:100B2000009135232A46204603F0FDFD03B030BD79
:100B30008C0100207413002007B50190FFF7E0FF3F
:100B4000019803B05DF804EB00F08EBC07B5074BCD
:100B500003EB80002A230190009339220423002113
:100B6000034803F0F1FD03B05DF804FB040000202E
:100B70007413002070B5154D04460020FFF7F2FDF8
:100B80002A6892F86A30013382F86A3000F002F97C
:100B90000F4B28681A781B7880F84A2023B10D4D36
:100BA0002B7803F0FF0623B1BDE870400020FFF76B
:100BB00007BE09F041F9084B30461E60FFF7C6FF3B
:100BC000204603F0A0FD01232B7070BD54A500202A
:100BD000140000208E01002078010020334B1A6899
:100BE000013270B51A60324B324C1968324B032A0D
:100BF00005462EDCD4F8040420F00800C4F80404F0
:100C00004FF4C87000FB0211C3F8AC100CBFE8230E
:100C1000C823023328491B0443F4F1730B61274BAB
:100C20004B61A3F5F073C1F88830254BC1F8B030A3
:100C3000012310464B62FFF789FF1E4AD2F80434A5
:100C400043F008032846C2F80434BDE8704003F0BE
:100C50005ABDD4F8042422F00802C4F80424194A26
:100C6000C3F8AC101A6102F101125A61164AC3F8B6
:100C70008820134AC3F8B02001225A620020FFF7EF
:100C800065FFD4F8043443F00803C4F804340020AA
:100C9000FFF796FD0D4B00221A700D4B186820B11E
:100CA0000368BDE870401B6A184770BD78010020DA
:100CB00074010020006C014000680140E301CA009B
:100CC00093018006E201CA000300CA008E010020E1
:100CD00054A5002008B5044B0146186801B1012154
:100CE00009F0C4F8012008BD54A50020054B0648B2
:100CF00000225A609A60054A1A60054B0360FFF7AC
:100D0000C1BC00BF800100207C010020A0DF0108E1
:100D1000C8DF0108012108B50022084605F091FF4F
:100D20000A4B186028B90A4B0A4A28210A481CF0C5
:100D3000DDF800220421012006F020F8074B18609E
:100D400018B9074B034A2C21F0E708BD9401002095
:100D5000E0E2010829E3010858E3010890010020BE
:100D6000B9E30108024B4FF0FF31186805F0B3BF3B
:100D700094010020014B186805F0D8BF94010020B1
:100D8000024B0021186805F0A6BF00BF94010020A7
:100D9000FFF7F0BF03480449006800231A4606F035
:100DA00028B800BF900100201800002013B5084C9F
:100DB00000231A4601A9206806F04BF820684FF07E
:100DC000FF33002201A906F044F802B010BD00BFB5
:100DD0009001002003685B6C18470120704703688E
:100DE0009B6A184782B0002301930D4B1A6B42F4A3
:100DF00000021A631A6B02F400020192019A1A6946
:100E000042F400021A611A6922F400021A61054BC9
:100E1000054A1A61054B4FF080629A6002B0704734
:100E20000038024034130020710E000800E100E099
:100E300040F2EF3070470000054B0360054B4FF068
:100E40008062C3F88820BFF34F8FBFF36F8F704766
:100E50006CE5010800E100E010B504464FF45A616A
:100E6000FFF7EAFF20461CF013F8204610BD0000F3
:100E7000024B1B68586803685B69184754A500203B
:100E800070B5044625460A4B0C3000266060267279
:100E9000667245F8203B6022294609F023F904F5E3
:100EA0005A63EE602435AB42FBD1204670BD00BFD3
:100EB0006CE5010808B50B290BD8DFE801F0120634
:100EC000100A0A0A0A0808080808012008BD0520B7
:100ED000FCE7054B054A064865211CF007F8002091
:100EE000F4E70220F2E700BFFBE3010816E4010883
:100EF00060E4010808B50A2909D8DFE801F0100606
:100F00000E080808080606060600012008BD054B65
:100F1000054A064886211BF0E9FF0020F6E702207B
:100F2000F4E700BFFBE30108BFE4010860E4010847
:100F30002DE9F84391F81D800C4641460746FFF71E
:100F4000B9FF94F81E90054649463846FFF7B2FFB0
:100F5000494606463846FFF7CDFFA18A628B434BD0
:100F6000521A1A649A61228B521A1A61E28A5863E1
:100F700042EA01425A6420696268D863DA602768ED
:100F8000802F28D0227F0FD8202F65D0402F63D00C
:100F9000042F1AD0354B45EA026545F40035C845A3
:100FA000DD615FD0324A44E0B7F5807F04D0B7F509
:100FB000007FEFD12F4900E02F4941EA0262DA6158
:100FC000E2681A625E62586132E045EA026242F407
:100FD0000032DA61F6E7A7683A1DDA62217F3A78D3
:100FE00045EA016545F40035DD615E62586142B154
:100FF000012A21D0214B224A22484FF488711BF04C
:1010000075FFDA69798822F47F42013922F01002F3
:1010100042EA0122DA610121144BDA6942F020022E
:10102000DA61DA699206FCD410229A600029B9D0FC
:10103000154A1A60BDE8F883DA69788822F47F429D
:10104000013822F0100242EA0022FF3942F0100279
:1010500018BF0121DA61DFE745EA0262034B42F47F
:101060000032B6E740F20122E3E700BF00B00240E1
:1010700001020100090002000A0002000AE501085D
:1010800024E5010860E401080102020038B50C46BD
:10109000897FFFF72FFFA58AE28A164B21695863E3
:1010A00042EA05425A64628BD963521B1A6425686E
:1010B000082D0ED19A611A615862207F0E4A42EAC9
:1010C0000062DA61E2681A620C4A5961D9601A60FA
:1010D00038BD0022D8611A61E1680A0A480902F4A1
:1010E000784200F4FC600243C1F3C4010A439A63EE
:1010F000034AECE700B002400900010001020200CF
:1011000001020300012070470C2070470C2303FBF1
:101110000100083070470C2303FB010008307047C2
:10112000012070474FF49C7070474FF49C7303FB91
:101130000100083070474FF49C7303FB0100083036
:101140007047012070471020704700EB01100830F5
:10115000704700EB011008307047084601F04AB9AB
:1011600010B5034B0360044607F027FE204610BD70
:1011700024E6010810B50446FFF7F2FF20461421CB
:101180001BF086FE204610BD10B5034B03600446DD
:1011900007F013FE204610BDF0E5010810B5044627
:1011A000FFF7F2FF20464FF4A0711BF071FE2046BE
:1011B00010BD000010B5034B0360044607F0FDFDB1
:1011C000204610BDBCE5010810B50446FFF7F2FF4C
:1011D000204618211BF05CFE204610BD10B5084BC0
:1011E0000360044600F5B670FFF7BAFF04F12C0067
:1011F000FFF7CAFF04F11400FFF7DCFF204610BD23
:1012000058E6010808B50248FFF7E8FF08BD00BF2F
:101210009C01002010B50446FFF7E0FF20464FF484
:1012200038711BF035FE204610BD00002DE9F3415A
:1012300000F060FF054600F061FF002401462346F0
:101240002846224600940EF0B7F9254B254A264D34
:101250001A60204601F0DEFB24480EF015F92B68D9
:10126000BFF35B8FDB0735D428461BF013FE88B332
:101270001F4C204B236004F5C27604F1140004F1E6
:101280002C0804F5B6776060C4F80880E760266132
:1012900007F094FD184B6361404607F08FFD174B34
:1012A000E362384607F08AFD154BC4F86C3104F54B
:1012B000C07001F02BFC224604F5C071304601F0ED
:1012C0001BFC304601F096F80E481BF02DFE284618
:1012D0001BF0ECFD0C4802B0BDE8F041FFF712BB7B
:1012E000B0A500209C120020980100201C000020C6
:1012F0009C01002058E60108BCE50108F0E5010862
:1013000024E60108051200082012002070470000A2
:101310000148FFF711BB00BF2012002070B5224E1C
:10132000224C234D234B23603046FFF7A9FD28466E
:1013300012F00EFC204B2148DC6000224FF480713B
:10134000C3E912121E491A86C3E91A121D49996788
:101350001D4983F858200B604FF4507101801B48E1
:101360005A6601801A4883F870204FF4F071C3E97F
:101370000422C3E90622C3E90822C3E90A22C3E919
:101380000E22C3E91022C3E91422C3E917225A67C7
:10139000C3E9016501800F4883F8342001800E49BC
:1013A0000A700E4A1A6070BD800400207C04002080
:1013B000A012002084E001082012002048A500208F
:1013C000010000010000010154A500204EA50020ED
:1013D0004AA5002050A500204CA5002010E20108DD
:1013E0000148FFF729BD00BF80040020002070479E
:1013F00081807047C180704701817047418170478B
:101400007047704770477047704710B4C4880368CE
:10141000121B84885B6D091B12B25DF8044B09B284
:1014200018474FF6FF7383814FF0FF330362136851
:10143000C3611060704790F825201AB190F82420FD
:1014400002B1186070470000024B902283F85A23C3
:10145000704700BF00E100E0024B4FF080629A60ED
:10146000704700BF00E100E07047704770B5044668
:1014700007F0A3FF23685D6E0BF0B0FB014620462A
:10148000A8472368D3F8885000232046AC461A4664
:10149000BDE870404FF04041604707F03FBF08F0A3
:1014A000A0B890F8252012B103685B69184770470F
:1014B000044B4FF08062C3F88820BFF34F8FBFF317
:1014C0006F8F704700E100E00149002006F0FABF8D
:1014D000D50C000808B5642005F0A7FBFBE7000069
:1014E00030B595B01022002109A81BF004FF14228A
:1014F000002102A81BF0FFFE00241F4B00941A6C71
:1015000042F080521A641B6C03F080530093009BDE
:101510001A4B01941A6842F440421A601B6803F4A3
:10152000404301930122019B4FF48033CDE907230F
:1015300002254FF480030821CDE90D534FF4B47315
:10154000CDE90F1304200623CDE9120307A8119556
:1015500004F0AEFE04F0FEF80F23CDE9023504944A
:101560004FF480534FF4A054052102A8CDE9054360
:1015700004F074FC15B030BD00380240007000402B
:101580002DE98048BBB002F0D7FAFFF7A9FF14227B
:1015900000212DA800241BF0AEFEC84B03941A6B4B
:1015A000C74842F010021A631A6B02F0100203924D
:1015B000039A04941A6B42F002021A631A6B02F047
:1015C00002020492049A05941A6B42F040021A63D4
:1015D0001A6B02F040020592059A06941A6B42F0CB
:1015E00008021A631A6B02F008020692069A079420
:1015F0001A6B42F480721A631A6B02F480720792BB
:10160000079A08941A6B42F020021A631A6B02F0D0
:1016100020020892089A09941A6B42F480621A63B5
:101620001A6B02F480620992099A0A941A6B42F0CA
:1016300080021A631A6B02F080020A920A9A0B94D3
:101640001A6B42F004021A631A6B02F004020B9246
:101650000B9A0C941A6B42F001021A631A6B02F097
:1016600001020C920C9A0D941A6B42F400721A63E8
:101670001B6B03F4007322464FF480510D930D9BB6
:1016800003F068FA8F480122082103F063FA8E48BC
:101690002246462103F05EFA22468C48802101272B
:1016A00003F058FA03254FF48053854830952DA94F
:1016B000CDE92D3711262F9403F0C0F80822814878
:1016C0002DA9CDE92D26CDE92F4403F0B7F8462208
:1016D0007D482DA94FF08008CDE92D27CDE92F4574
:1016E00003F0ACF82DA97948CDE92D86CDE92F4539
:1016F00003F0A4F87648774E774A026002F0C0FA09
:10170000764AC6E90A44C6E90C443046C6E90024D4
:10171000C6E9024402F0C1FB3946304602F076FCCD
:101720004146224669486E4E03F014FA142002F036
:101730002FFA41463A46654803F00CFA0A2002F0B7
:1017400027FA2422214617A810941BF0D4FD182252
:10175000214611A81BF0CFFD342221462DA81BF0F5
:10176000CAFD2C2221460DEB08001BF0C4FD4FF0F2
:1017700002085C4A7D214FF00409CDE90E1830467D
:101780000EA9C6E90024C6E9029702F007FD17A9D1
:101790003046CDE91774CDE91944CDE91B44CDE9B4
:1017A0001D441F9402F026FF1C2321210F22CDE9A6
:1017B00011311921CDE91321304611A9CDE9154484
:1017C00002F0DBFE4946304602F0C6FE42F21071DE
:1017D000304603F01CF82146304602F07CFC4FF402
:1017E00080704FF40071CDE92D014FF4806A4FF401
:1017F0000061CDE92FA14FF480534FF40051CDE9A2
:1018000031314FF480434FF480314FF4003CCDE947
:1018100033314FF480214FF4002ECDE935C14FF024
:101820008071CDE937E130462DA94FF0C80BCDF8D6
:10183000E48002F05DFE102320A93046CDE922B3FA
:10184000CDE92684CDE92044CDE92449CDE92844D9
:101850002A9702F0DBFD2146304602F0C6FD224801
:101860002249CDF8B480C0E90014202340214FF470
:101870008052C0E904314FF4C0714FF48043C0E995
:101880000923C0E9061407232DA9CDE93035CDE998
:101890002E39CDE93288C0E90249046204F0BEFE67
:1018A00002F07AF802F02AF83422214620A81BF030
:1018B00022FD0F4D0F4BAC861EE000BF00380240EA
:1018C000001802400028024000000240001C0240B4
:1018D0002C130020341300200030024000B00240DE
:1018E00074130020006C0140D8140020400100A0B7
:1018F000E413002000680140C5E90034CA214FF418
:10190000F173C5E90913CB2040F2E313C5E90B03DA
:101910002846C5E90678C5F82080C5E90244C5E92E
:10192000044785F8364003F0DFFDFF224FF0050C39
:10193000CDE925244FF04042CDE928C24FF4F073A1
:1019400020A922462846CDE92338CDE92AB3CDE99E
:10195000204B2294CDF89CA0ADF8B0408DF8B24059
:1019600003F08EFE2A68936923F0010393613046E9
:1019700002F0A6FE3946404601F08EF928231522D2
:1019800021460094304602F0CEFE2DA93046CDE926
:101990002D44CDE92F44CDE93144CDE93344CDE99F
:1019A0003544379402F0A4FD4FF44871224628468E
:1019B00003F094FE2A6822489369224DDFF8A8803C
:1019C00087603B439361204B4FF0100EC0E9003716
:1019D0001B23C0E903E3C0E905A4C0E9074403F001
:1019E000CDFF01F051FE01F085FD01F0FBFC174B2E
:1019F0002C62C5E9008328464FF48043C5E90434CE
:101A0000C5E90244C5E9064403F08EFA284603F00E
:101A100033FBFEF7EDFDFEF7EAFD05F093F80C4A07
:101A20000C48214605F0BAF80B4B0C4A18602146C9
:101A30000B4805F0B3F80B4B186005F095F8FEE77E
:101A40008C14002090130020001000A0801A0600C3
:101A5000A4E60108D51400082813002080E6010838
:101A6000FF05000824130020005400400268034BC7
:101A70009A4201D102F07AB8704700BF00100040CE
:101A80007047000082B00E4B00220092596C41F466
:101A900080415964596C01F4804100910099019290
:101AA000196C41F0805119641B6C03F08053019351
:101AB000019B0F216FF0010002B002F08FB800BF50
:101AC000003802400268094B9A4282B00BD10023D1
:101AD0000193074B1A6B42F480521A631B6B03F499
:101AE00080530193019B02B0704700BF0030024059
:101AF0000038024007B50F4B02689A4216D1002207
:101B0000A3F5F0430192196B41F4000119631B6BBB
:101B100003F40003019305215A20019B02F05EF8B3
:101B20005A2003B05DF804EB02F08AB803B05DF808
:101B300004FB00BF00B0024010B5044688B0142278
:101B4000002103A81BF0D7FB2268174B9A4228D12B
:101B500003F54C43002401945A6C144842F000628F
:101B60005A645A6C02F000620192019A02941A6B54
:101B700042F400721A631B6B03F400730293042295
:101B8000029B0223CDE9032303A90D23079302F04F
:101B900055FE5C202246052102F020F85C2002F070
:101BA0004FF808B010BD00BF006C01400024024097
:101BB00030B5044689B01422002103A81BF09BFB1A
:101BC00022681A4B9A422FD1194C1A4800250195C8
:101BD000236B43F002032363236B03F0020301939F
:101BE000019B4FF440721223CDE90323012103230B
:101BF000CDE90513042303A9079302F01FFE029504
:101C0000236C43F400132364236C03F40013029346
:101C1000029B236A43F400132362236A23F4001314
:101C20002362642001F0B4FF09B030BD00540040CD
:101C3000003802400004024008B502680A4B9A428C
:101C400010D10A4A0A48136C23F4001313644FF4AA
:101C5000807102F0D9FEBDE8084005484FF40071DC
:101C600002F0D2BE08BD00BF005400400038024060
:101C70000004024010B5044690B03C22002101A8A7
:101C80001BF039FB2268124B9A421FD108230193A3
:101C90004FF4B473059301A80623089304F0A6F942
:101CA00008B1FFF7EDFE0B4B00220092596C41F09A
:101CB000806159645B6C03F08063009358200521B8
:101CC000009B01F08BFF582001F0BAFF10B010BD4F
:101CD0000068014000380240F0B5044689B0142283
:101CE000002103A81BF007FB2268244B9A4242D133
:101CF000234B2448002400949A6B42F002029A631A
:101D00009A6B02F002020092009A01941A6B42F060
:101D100002021A631A6B02F002020192019A029403
:101D20001A6B42F020021A631B6B03F0200302932C
:101D300002260325029B0A27402303A9CDE9033687
:101D4000CDE9065702F07AFD4FF49863CDE90336EA
:101D50000D48092303A90793CDE9054502F06EFD5F
:101D60004FF440730848079703A9CDE90336CDE93E
:101D7000054502F063FD09B0F0BD00BF001000A0F2
:101D800000380240000402400014024008B5026816
:101D9000094B9A420FD1094A0948936B23F0020379
:101DA0009363402102F030FEBDE8084005484FF43F
:101DB000F86102F029BE08BD001000A00038024002
:101DC0000004024000140240F0B587B000230393E2
:101DD000304B1C68002C5AD101221A602E4B009403
:101DE0009A6B2E4842F001029A639B6B03F0010349
:101DF0000093022703260C25009B01A94FF683734D
:101E0000CDE90137CDE9046502F018FD48F233133E
:101E10002348059501A9CDE90137CDE9034602F034
:101E20000DFD4CF203731F48059501A9CDE901375B
:101E3000CDE9034602F002FD40F2FF631A48059522
:101E400001A9CDE90137CDE9034602F0F7FC4FF6D1
:101E50003F031648059501A9CDE90137CDE90346B1
:101E600002F0ECFC4FF47F431148059501A9CDE940
:101E70000137CDE9034602F0E1FC0D230D4805953D
:101E800001A9CDE90137CDE9034602F0D7FC07B03F
:101E9000F0BD00BF101500200038024000100240C5
:101EA00000180240000C02400020024000140240D2
:101EB000001C02400008024008B5174B1A6852BBCC
:101EC00001221A60154A1648936B23F001039363AD
:101ED0004FF6837102F098FD124848F2331102F078
:101EE00093FD11484CF2037102F08EFD0F4840F251
:101EF000FF6102F089FD0E484FF63F0102F084FDBC
:101F00000C484FF47F4102F07FFDBDE808400A48CD
:101F10000D2102F079BD08BD0C15002000380240EB
:101F20000010024000180240000C02400020024055
:101F300000140240001C02400008024070B588B046
:101F400000230293204B1A6C42F010021A641B6C9F
:101F500003F010030293054601A903A8029B04F0B5
:101F600027F8069B4BBB04F013F8184E184B336050
:101F700040F2E733F360174BB0FBF3F3013B7360C0
:101F8000304600233361B360B36104F0F3FC0446D0
:101F900080B9304604F0A8FB044658B9362001F059
:101FA0004FFE0F2D0DD822462946362001F016FE91
:101FB000094B1D60204608B070BD03F0E9FF4000EA
:101FC000D3E70124F6E700BF0038024014150020D3
:101FD0000010004040420F00580000207047FEE70C
:101FE000FEE7FEE7FEE77047014804F0BBBB00BF19
:101FF00014150020014803F0E6BA00BFE4130020E6
:10200000014801F078BF00BF34130020014802F0FE
:102010007AB900BF741300200120704708B51BF087
:102020000DFA162303604FF0FF3008BD08B51BF012
:1020300005FA16230360FEE770B50D4614460E46FA
:10204000731B9C4201DC204670BDAFF3008006F894
:10205000010BF5E770B50D4614460E46731B9C4206
:1020600001DC204670BD16F8010BAFF30080F5E7E8
:102070004FF0FF3070474FF400534B600020704723
:1020800001207047002070470A4A116808B50346CE
:1020900009B9094911601068694603448B4206D9A1
:1020A0001BF0CCF90C2303604FF0FF3008BD136028
:1020B000FCE700BF5C15002088B10020704710B518
:1020C000042104461AF0E4FE204610BD012908B59B
:1020D00006D0022908D059B900F0E8FC006808BD14
:1020E00000F0E4FC4068FAE700F0E0FC8068F6E706
:1020F0000020F4E700487047DCE601080320704741
:1021000013B5002451B1036801948DF8034001AA6E
:102110009C680DF10303A04702B010BD0846FBE721
:10212000C0897047008A7047C088704780887047B0
:10213000807A00F07F007047807AC009704770474E
:1021400010B5082104461AF0A3FE204610BD7047C2
:10215000704700F598730868496803C37047704773
:102160007047416070477047064BC0F84C31002300
:10217000C0F8503100F5A273C0F84801C0F84031F2
:10218000704700BF2D22000801230372704770477B
:10219000704710B4C26841685410034601EB6200F6
:1021A000D20748BF0A599B685DF8044B48BFD35813
:1021B000184743682BB183682BB9C06800F0010051
:1021C0007047184670470120704710B50C2104462F
:1021D0001AF05EFE204610BD10B5102104461AF01C
:1021E00057FE204610BD10B54FF4AE7104461AF0EC
:1021F0004FFE204610BD10B50AF0F0FC0368BDE8A4
:102200001040DB6B184710B50446D0F8400158B1B8
:102210000368DB68984738B1D4F8400103689B68CD
:1022200098470023C4F8403110BD00002DE9F14F5C
:10223000D0E9555A0746A86803681B6A9847B0F565
:102240009C7F05D2454B464AA32146481AF04EFED4
:10225000686803681B6A98470F2803D8424B404AB6
:10226000A421F2E7E86803681B6A98470B2803D8A3
:102270003E4B3B4AA521E8E70AF0B0FCDFF8F490BA
:1022800004300AF0D0FCD9F8000010B10368DB6814
:102290009847D9F8000010B103681B689847DFF829
:1022A000D880D8F8000010B103685B699847D7F868
:1022B0003C0110B103685B689847D8F8000010B182
:1022C00003681B689847D7F83C0110B103689B6806
:1022D0009847E868036800215B6A98474FF0000B55
:1022E000234B03600446C0F804B080F808B0A86827
:1022F000036859465B6A9847064600F03FFC6868E9
:10230000036859465B6A98473146054600F010FC61
:10231000C9F80040C7F83C51C8F80060E5B12B1D72
:10232000CAF800303368C5F808A03046DB68F563AA
:1023300098472B6828461B689847214630460CF082
:1023400039F9236820461B69984723685B69204652
:1023500001B0BDE8F04F18472B46E1E728E7010838
:10236000B6E70108BAE8010801E90108A4E9010893
:10237000BCEA010894A5002090A50020044B1B682E
:1023800093F858200AB1D86C00B99868704700BF1C
:1023900054A50020F8B5044617460E460AF0E0FCA6
:1023A000104B1C60104B2360104B0025C4E95135C5
:1023B0000F4BC4E953551868036829469B68C4E964
:1023C0004F55C4E955769847284600F023FBFFF7A0
:1023D000D5FF13F0ECF9FFF7D1FF13F063FA2046B5
:1023E000F8BD00BFA0A5002068EA010850EA010876
:1023F00054A50020064BC0F84C310023C0F85031E2
:1024000000F5A273C0F84801C0F84031704700BF22
:102410002D220008406A7047806A704770478B8899
:10242000C0690A68DB0A50F823001044704710B5F1
:10243000C2B1137BB3B1547BD27A240204F4E064BA
:102440001443026A98B202EB840213888B4202D1D1
:1024500092F9020010BD05D8013880B2043200287C
:10246000F3D1F7E70020F5E710B52C2104461AF068
:102470000FFD204610BD000030B58BB00446BDF8FE
:1024800060500895BDF85C5007959DF85050069532
:102490009DF84C5005959DF8485004959DF8445082
:1024A00003959DF8405002959DF83C500195BDF86C
:1024B000385000950BF0B6FC064B2360159BE3618A
:1024C000169B2362199B63621A9BA36220460BB082
:1024D00030BD00BFE0EA01087047704770477047A1
:1024E0007047704770477047704730B4C26844689F
:1024F0005510034604EB6200D20748BF62599B683F
:1025000030BC48BFD358184743682BB183682BB9F8
:10251000C06800F0010070471846704701207047FE
:1025200010B5102104461AF0B3FC204610BD10B5BA
:102530004FF49C7104461AF0ABFC204610BD00F12C
:10254000E0028A4202D10368DB6A1847704770B51F
:10255000036804461B6B15469847236829462046A6
:102560005B6BBDE87040184770B504461D46BDF969
:102570001060FFF7ECFF2368294620469B6B9847C5
:10258000236831462046DB6BBDE8704018470000E9
:102590001A4B73B51B88018F8B4206462BD9184BFB
:1025A0001B682BB9174B184A18486C211AF09EFC6F
:1025B00013F81120164B1B6853F82250154B18685E
:1025C00000F064FA2B6801909B6B284698472B68B3
:1025D00001999B6C0446284698472B6801995B6AD1
:1025E00014FB00F428469847A4B223181BB2A6F89F
:1025F000463002B070BD0023F9E700BFA8A5002057
:10260000A4A5002038EB01087AEB0108B5EB01081E
:10261000ACA50020B0A500202DE9F04F04468BB0FA
:10262000A24600250BF01AFE5E4BE5634AF8403BDC
:102630005D4B256604F16C07C4E910354FF48078D2
:10264000FF2308A9A4F8648084F866304FF6FF766B
:10265000C4E91255C4E91455C4E91655A5663846AF
:10266000ADF8206007F09AFD504BC4F89830504BFD
:10267000C4F8C030A4F8C4604FF47F0304F1E0064E
:102680004FF0FF3BA4F8BC80C4F8CC30C4E9275518
:10269000C4E92955C4E92B55C4E92D55C4E936B51B
:1026A000C4F8C850A4F8D050C4F8D450304608F04C
:1026B0007BFD404BC4E94A343F4B4FF4F072C4E910
:1026C0004C3500924FF448732A4629465046FFF78E
:1026D0004BFF04F104084FF07F42A266514640468A
:1026E00006F080FB08A93846ADF8205008F025FC1C
:1026F0004FF4F0724FF44873009229462A46384648
:10270000FFF732FF2946384607F003FD04F1980928
:102710003946404606F066FB48462D22CB21FFF79E
:1027200016FF02AF4FF07F42C4F8C8204946384632
:10273000A4F8CC5008F036F897E8070004F1D40369
:1027400083E8070001271A4B089308A94846ADF80B
:10275000247008F0CFFA4946404606F043FB304665
:10276000B1224FF48C71FFF7F2FE022308AA07A9E9
:102770003046ADF82030ADF81C7008F018FB30463C
:10278000A4F81851FFF704FF04F594734046C4E918
:1027900047BBC4F80831314606F024FB20460BB095
:1027A000BDE8F08F1CEC0108ACF201081CF2010836
:1027B00020E7010804EC01083F25000870470000ED
:1027C00030B5164D2C68BFF35B8F14F001048FB049
:1027D00020D128461AF05EFBE0B13F230993104B4D
:1027E0000893104B104911480A940122CDE9064381
:1027F0000423CDE903320A230093CDE90B44CDE94C
:1028000001440594FFF738FE09481AF08DFB28466D
:102810001AF04CFB05480FB030BD00BF601500201A
:1028200060F8010874F80108BC420D90641500209E
:10283000BD2700087047000030B5164D2C68BFF367
:102840005B8F14F001048FB020D128461AF022FBD0
:10285000E0B13F230993104B0893104B10491148E6
:102860000A940122CDE906430423CDE9033214235F
:102870000093CDE90B44CDE901440594FFF7FCFD3D
:1028800009481AF051FB28461AF010FB05480FB012
:1028900030BD00BF9015002064F8010878F80108E9
:1028A000CC420D9094150020352800087047000098
:1028B00030B5174D2C68BFF35B8F14F001048FB057
:1028C00022D128461AF0E6FAF0B13F230993114BC2
:1028D0000893114B07930123CDE905430493042387
:1028E000CDE9024328230D49009314223023CDE97A
:1028F0000B440B480A940194FFF7BEFD09481AF0F7
:1029000013FB28461AF0D2FA05480FB030BD00BFBD
:10291000C015002068F801087CF80108DC420D9021
:10292000C4150020AD280008002070470020704723
:102930000EB403B503AB002153F8042B01930BF045
:1029400099F802B05DF804EB03B070470CB407B51A
:1029500004AB53F8042B01930BF08CF803B05DF833
:1029600004EB02B070470000436C10B5044673B32B
:10297000038F2BB9184B194AC52119481AF0B6FA1A
:10298000C38E00EB43035B8C0BB30CF042FB238F35
:10299000012B03D8134B144ACB21EEE7E28E531CD4
:1029A0009BB2092B194688BFA3F10A0104EB410130
:1029B00040F63F10498C814209D10A2B04EB4202B8
:1029C00028BF002304EB4303508C588451842046D5
:1029D000BDE810400CF020BA4CEC010855EC0108A1
:1029E00000ED01084AED010858ED01080CF0DBB9D3
:1029F00010B586B002AC84E806001A460AAB05930F
:102A00000193099B00932146089B09F069FC06B0DD
:102A100010BD000038B518BB124B13481C68134991
:102A2000B4B1226822440260626822440A60A2684B
:102A300014440F4B00221A8000F038F8054600F0CD
:102A400033F80C4B1C600C4B1D600C4B188007E0DE
:102A50000B4B03600B4B0B600B4B1C68002CE8D13D
:102A600038BD00BFF0150020F4150020F815002037
:102A7000FC150020A4A50020ACA50020A8A50020DE
:102A8000FC430D90F4430D9034440D90044B1B68AF
:102A900053F82100034B1B6803EB4000704700BF55
:102AA000F8150020F41500200220704700487047F8
:102AB0000016002010B5FFF7BFFE044C2060FFF7A2
:102AC000F7FE6060FFF77CFEA06010BD00160020DE
:102AD000704710B54FF4AE7104461AF0D9F920468C
:102AE00010BD10B50446D0F8580100F012F8204689
:102AF000BDE810400AF0F4B810B50446FFF74AFCF0
:102B0000014B2360204610BD34EE01080022026014
:102B100070477047704704387047704710B51021F0
:102B200004461AF0B5F9204610BDA0F10400F5E7FF
:102B300010B500228260044AC16002F1080420320C
:102B40000460426010BD00BF80EE010870470000C5
:102B500010B5034B03600446FFF7C4FC204610BDCC
:102B6000B0EE010810B50446FFF7F2FF20464FF41F
:102B70009C711AF08DF9204610BD000010B5044676
:102B8000FFF74AFD014B2360204610BDB0EE01085F
:102B9000FFF7A9BC70470020704710B5044600F04D
:102BA0006BFBA821E0B200F083FB80B210BD0000F7
:102BB00013B500240221C0B28DF8074000F078FB65
:102BC0008DF807009DF8073003F00F038DF80730EC
:102BD0009DF80730022B88BF8DF80740044B9DF805
:102BE00007209DF807005A7000229A7002B010BDAD
:102BF0000E16002073B5154C1546A37862789A42DC
:102C00000E461FD903B3012B14BF00210921042351
:102C10000DEB0302C0B200F069FB9DF804309DF893
:102C200005201B0203F47063134333809DF80630C4
:102C30009DF807201B0203F4706313432B80A378D5
:102C40000133A37002B070BD0321E0E70E1600202F
:102C50000122A421C0B200F011BB0022A421C0B205
:102C600000F00CBBFFF7F9BF7047000010B4094B30
:102C70001A7890420AD05978884207D00AB129B907
:102C8000012298545DF8044B00F0F6BA5DF8044B4D
:102C9000704700BF0C16002038B504460D460020D2
:102CA000C949FDF713FFC9490320FDF70FFFC849C4
:102CB0000020FDF70BFFC7490220FDF707FFC449BD
:102CC0000020FDF703FFC4490020FDF7FFFE0A20A6
:102CD00000F024FBC1490020FDF7F8FEC0490020A8
:102CE000FDF7F4FE0A2000F019FBBE490020FDF7B5
:102CF000EDFEBD490020FDF7E9FEBC490020FDF7CF
:102D0000E5FEBB490020FDF7E1FEBA490020FDF7D2
:102D1000DDFEB9490020FDF7D9FEAB490020FDF7E3
:102D2000D5FEB6490020FDF7D1FEB5490020FDF7DC
:102D3000CDFEB4490020FDF7C9FEB3490020FDF7E0
:102D4000C5FEB2490020FDF7C1FEB1490020FDF7E4
:102D5000BDFEA7490020FDF7B9FE9B490020FDF705
:102D6000B5FEAC490220FDF7B1FEAB490020FDF7EE
:102D7000ADFEAA490020FDF7A9FEA9490020FDF7F4
:102D8000A5FEA8490020FDF7A1FEA7490020FDF7F8
:102D90009DFEA6490020FDF799FEA5490020FDF7FC
:102DA00095FEA4490020FDF791FE95490020FDF70E
:102DB0008DFEA1490020FDF789FEA0490020FDF706
:102DC00085FE9F490220FDF781FE81490020FDF725
:102DD0007DFE9C490620FDF779FE9B490020FDF70A
:102DE00075FE9A490E20FDF771FE99490020FDF706
:102DF0006DFE98490E20FDF769FE97490020FDF70A
:102E000065FE96490A20FDF761FE95490020FDF711
:102E10005DFE94490020FDF759FE6D490020FDF745
:102E200055FE91490A20FDF751FE90490020FDF71B
:102E30004DFE8F490F20FDF749FE83490020FDF725
:102E400045FE8C490F20FDF741FE81490020FDF72A
:102E50003DFE89490A20FDF739FE7F490020FDF734
:102E600035FE86490F20FDF731FE7D490020FDF734
:102E70002DFE83490F20FDF729FE82490020FDF732
:102E800025FE81490A20FDF721FE80490020FDF73B
:102E90001DFE7F490A20FDF719FE4D490020FDF770
:102EA00015FE7C490A20FDF711FE70490020FDF750
:102EB0000DFE79490F20FDF709FE63490020FDF75B
:102EC00005FE76490F20FDF701FE61490020FDF760
:102ED000FDFD73490A20FDF7F9FD5F490020FDF76C
:102EE000F5FD70490F20FDF7F1FD5D490020FDF76C
:102EF000EDFD6D490F20FDF7E9FD4D490020FDF77F
:102F0000E5FD6A490020FDF7E1FD69490020FDF774
:102F1000DDFD68490020FDF7D9FD67490020FDF778
:102F2000D5FD66490020FDF7D1FD27490020FDF7BA
:102F3000CDFD63490320FDF7C9FD23490020FDF7BE
:102F4000C5FD21490020FDF7C1FD5E491020FDF7B8
:102F5000BDFD1D490020FDF7B9FD5B491020FDF7BF
:102F6000B5FD00205949FDF7B1FD782000F0D6F9F4
:102F7000002C00F0C980022C03D155490020FDF738
:102F8000A5FD012D0BD153490020FDF79FFD5249AE
:102F90000420FDF79BFD51490420FDF797FD5049A2
:102FA0000020FDF793FD4F490020FDF78FFD4E49AE
:102FB0000020FDF78BFD4D490020FDF787FD4C49B2
:102FC0000020FDF783FD95E0E0EE010844EF0108E5
:102FD000F4EE0108CAEF01080AEF010820EF01082A
:102FE00036EF01083CEF01083EEF010840EF010811
:102FF00042EF0108E2EE0108E4EE0108E6EE010806
:10300000EAEE0108ECEE0108EEEE0108F0EE010830
:10301000F2EE010848F00108F6EE0108F8EE0108AA
:10302000FAEE0108FCEE0108FEEE010800EF0108CF
:10303000E8EE010802EF010804EF010806EF0108BD
:103040004BF001084EF0010808EF010855F00108A7
:103050000CEF010864F001080EEF010848EF0108C9
:1030600010EF01082EEF010853EF010812EF0108DD
:103070005EEF01086EEF01087EEF010889EF01089D
:1030800099EF010814EF0108A9EF010816EF0108F4
:10309000B4EF0108BFEF0108CDEF0108DDEF010833
:1030A000EDEF0108F8EF010808F0010830EF010822
:1030B00032EF010834EF010838EF01083AEF010858
:1030C00018F0010826F0010837F0010818EF010890
:1030D0001AEF01081EEF01081CF0010821F0010899
:1030E00022EF010824EF010826EF010828EF01086C
:1030F0002AEF010806490020FDF7E8FC05490020F9
:10310000FDF7E4FC002038BD0349204637E700BF47
:10311000E0EE01082CEF01081CEF010870B52F4DFF
:1031200088B0284602F05AF90446002854D12C4AA7
:103130002C4B2D4E0190C5E900234FF48043C5E987
:103140000200C5E90430C5E906002862336B43F08C
:1031500002033363336B059003F002030193019B79
:103160004FF480711223CDE9031302200423CDE92B
:10317000060303A91D4801F061FB4FF4007303A986
:103180001A48039301F05AFB0294336C43F4001382
:103190003364336C03F400130293029B336A43F4E9
:1031A00000133362336A23F400133362224605218D
:1031B0001F2000F013FD1F2000F042FD22460521D4
:1031C000202000F00BFD202000F03AFD284608B03A
:1031D000BDE8704001F0A8BE08B070BD1416002014
:1031E00000540040801A06000038024000040240EB
:1031F00010B586B0194B002400941A6B42F00102FE
:103200001A631B6B03F001030093009B69B9012350
:10321000CDE9013102230493114B039153F82000AF
:1032200001A901F00BFB06B010BD0129FBD102235F
:1032300004934FF488130293094B019153F8200033
:10324000039401A901F0FAFA22460F21062000F0AA
:10325000C5FC062000F0F4FCE5E700BF00380240A2
:103260004800002008B5034B012153F8200001F06D
:103270006BFC08BD48000020FFF750BF7FB501235D
:103280008DF817206422CDE901320DF1170200926A
:103290000A460146054801F009FF20B1034801F044
:1032A000EBFEFFF73BFF07B05DF804FB14160020B0
:1032B0007FB500230A468DF817304FF47A71012349
:1032C000CDE901310DF1170100910146064801F0E9
:1032D0007DFF20B1044801F0CFFEFFF71FFF9DF8EE
:1032E000170007B05DF804FB141600201FB54FF45B
:1032F0007A74CDE90134009201230A46014606485A
:1033000001F064FF044620B1034801F0B5FEFFF769
:1033100005FFA0B204B010BD1416002000F038BCA8
:1033200000B595B04FF480720C924FF08071052279
:1033300006920F9100220121CDE90312CDE90D2261
:10334000CDE911220B9213920092102202924FF4B7
:10335000800203460191059206A96A46044802F0DC
:10336000B8FB003818BF012015B05DF804FB00BFA2
:103370006816002000B595B04FF480730C930623B7
:1033800006931748002341F2883206A9CDE90D3390
:10339000CDE911330F930B93139302F056FBE0B971
:1033A0000223CDE9003301221023CDE902324FF48C
:1033B00080010523CDE905134FF0807304900F932E
:1033C000074841F288336A4606A902F082FB0038BA
:1033D00018BF012015B05DF804FB0120FAE700BF1B
:1033E0006816002000B591B04FF480730893EB236A
:1033F00002934FF4406309934FF4005305934FF049
:1034000040720023CDE90A320A22079202A96A46D5
:1034100006480F93CDE90D33019302F0AAFB003863
:1034200018BF012011B05DF804FB00BF6816002032
:1034300070B588B02C4B2D48002400949A6B42F054
:1034400002029A639A6B02F002020092009A9A6951
:1034500042F002029A619A6922F002029A61019492
:103460001A6B42F002021A631A6B02F00202019216
:10347000019A02941A6B42F020021A631B6B03F04C
:10348000200302934022029B0223CDE90323012162
:103490000323CDE905130A2603A90925079601F0A0
:1034A000CDF94FF4806303A9114803930594079560
:1034B00001F0C4F94FF4407303A90D480393079634
:1034C00001F0BCF9C02303A909480393079501F053
:1034D000B5F922460F215B2000F080FB5B2000F055
:1034E000AFFB08B070BD00BF0038024000040240CE
:1034F00000140240F0B5484C484B236091B0204680
:1035000002F090FA054610B1012011B0F0BD01465D
:103510002046FFF78DFF01261023C4E90166E36012
:103520004FF0807797FAA7F3B3FA83F3013B236157
:1035300020464FF48063C4E90535C4E9075502F01D
:103540001DFA0028E0D1CDE90900CDE90D004FF4C6
:10355000807566230B9007900F9041F2883202A984
:1035600020460895029302F070FA08B10420CCE7D7
:10357000992341F2883202A92046029302F065FAAB
:103580000028F3D141F28830FFF7CAFE0028EDD1C0
:10359000CDE90900CDE90C60CDE90E008523079047
:1035A00041F2883202A92046089502930B9702F057
:1035B0004CFA0028DAD141F288320DF10701204699
:1035C00002F0BCFB0028D1D1FFF7D4FE0028CDD1FA
:1035D00081230293F02292FAA2F29DF807300A2189
:1035E000B2FA82F201FA02F203F00F03134302A9C6
:1035F00041F2883220468DF8073002F026FA002882
:10360000B4D141F288320DF10701204602F03AFBB5
:1036100000283FF47AAFA9E768160020001000A048
:1036200008B55B2000F01AFB1448402101F0ECF9CA
:1036300013484FF4806101F0E7F911484FF48071AD
:1036400001F0E2F90E484FF4007101F0DDF90C4889
:10365000802101F0D9F90A48402101F0D5F9094B40
:103660009A6942F002029A619A6922F002029A6112
:103670009A6B22F002029A6308BD00BF0004024068
:10368000001402400038024038B5084D084B2B604A
:10369000284602F0C7F9044628B901462846FFF734
:1036A000BFFF204638BD0124FBE700BF681600209D
:1036B000001000A02DE9F743214C224D01264FF0C8
:1036C00000081027214681464FF6FF722846C4E9BC
:1036D0000067C4E90268CDF8048002F0CDFF3046EF
:1036E00000F056FA022321464FF6FF722846C4E93D
:1036F0000037C4E9026802F0BFFF0323C4E90037C2
:10370000214608234FF6FF722846C4E9023802F02A
:10371000B3FF4FF40C7301930423C4E9003721462F
:10372000019BA6604FF6FF722846E36002F0A4FFFB
:103730004946284603B0BDE8F04302F0BBBF00BFD6
:10374000B4160020A017002070B506468EB00028E1
:1037500000F0BD805F4B6048604C002500959A6B7F
:1037600042F001029A639A6B02F001020092009A01
:1037700001951A6B42F480021A631A6B02F48002FC
:103780000192019A02951A6B42F004021A631A6BB5
:1037900002F004020292029A03951A6B42F00802A8
:1037A0001A631A6B02F008020392039A04951A6BCB
:1037B00042F010021A631A6B02F010020492049A8B
:1037C00005951A6B42F020021A631A6B02F0200270
:1037D0000592059A06951A6B42F040021A631A6B1D
:1037E00002F040020692069A07951A6B42F0800298
:1037F0001A631A6B02F080020792079A08951A6BF7
:1038000042F480721A631B6B03F4807308930222E4
:10381000089B0C920123CDE90A2309A90C220D92E1
:10382000099301F00BF84CF203732D48099309A991
:1038300001F004F84FF683732A48099309A900F0B0
:10384000FDFF4FF63F032848099309A900F0F6FF52
:1038500048F233132548099309A900F0EFFF4FF60A
:103860000C732348099309A900F0E8FF40F2FF63B5
:103870002048099309A900F0E1FF80224FF400736A
:10388000C4E902234FF480614FF48053C4E9041368
:103890004FF48043C4E906354FF40033C4E90835DA
:1038A0000323C4E90A352563134B346320462360A0
:1038B0006560A66300F088FA204600F007FA382019
:1038C0002A46052100F08AF9382000F0B9F90EB037
:1038D00070BD00BF003802400008024040170020C1
:1038E000000C024000100240001402400018024088
:1038F000001C0240002002401064024038B5194C00
:10390000194D1A4B2360072102230422C5E9003117
:10391000C5E90221C5E90433AB61E26040232022FE
:10392000C4E9042300214FF4C073C4E906314FF405
:1039300000604FF48053C4E908032046C4E9011134
:10394000A162FFF701FF2946204602F067FE084CFE
:10395000003818BF0120207040F26950FFF7AAFE1E
:10396000207838BDA0170020C4160020400100A018
:103970004D00002008B548B1382000F06FF9044828
:10398000044B0360BDE8084000F01EBA08BD00BF4C
:10399000E01600201064024038B5074C074B236046
:1039A000204602F05BFE064D014618B928702046FD
:1039B000FFF7E0FF287838BDA0170020400100A0E5
:1039C0004C0000202DE9F041164D174C2B6806469F
:1039D00020780F4698476B6854209847C0B211284A
:1039E0000AD06B6870209847C0B2702311282370EA
:1039F00004D00320BDE8F081542323700B4BDFF883
:103A000030802078C8F80050BE4234BF01210C211C
:103A10001970AB689847D8F800302078DB68984771
:103A20000020E7E720000020D4170020EC1700203A
:103A3000E81700202DE9F04FDFF8D8B0324ADBF864
:103A4000003006461B69107885B09847307050B139
:103A50002E4FDFF8C480B24603AD02A94FF0000933
:103A600033784B4503D8002005B0BDE8F08FDBF874
:103A7000003025485B69007801912A469847244B1D
:103A800001991B7813F0080F1FBF0A882888088047
:103A90002A809A0741BF0A88C2F5477203320A801A
:103AA0005B0748BF2B883A6831F8020B42BFC3F569
:103AB000EF7301332B8093B290428CBFC31A1B1A51
:103AC0009BB235F8022B0193D8F800309CB29A4291
:103AD0008CBF141BA41A019BA4B22344052BBC4623
:103AE000C8BF3860DCF80030C8BFC8F80020C64640
:103AF0002AF8023FDEF80030AAF80430043708F153
:103B0000040809F10109ABE7D4170020D8170020F9
:103B1000EC170020E8170020E0170020054BD3F831
:103B2000882042F47002C3F888204FF000629A6047
:103B3000704700BF00ED00E008B50B4B1A6842F477
:103B400000721A601A6842F480621A601A6842F4BD
:103B500080721A60032000F02FF80020FEF7EEF9C3
:103B6000FDF790FF002008BD003C0240034A044BD3
:103B700011681B780B441360704700BFF0170020DA
:103B800054000020014B1868704700BFF017002058
:103B900038B50446FFF7F6FF631C1CBF054B1B78C6
:103BA000054618BFE418FFF7EDFF431BA342FAD305
:103BB00038BD00BF540000200749CA6822F4E06203
:103BC0000302120403F4E063120C134343F0BF63D7
:103BD00043F40033CB60704700ED00E0164B30B586
:103BE000DC68C4F30224C4F10703251D042B28BF9D
:103BF0000423062D4FF0FF358CBF033C002405FA4B
:103C000003F321EA0303A54022EA0502A3400028AA
:103C100043EA0203ACBF00F16040084A4FEA0313D5
:103C2000B8BF00F00F00DBB2AABF00F5614013542B
:103C300080F8003330BD00BF00ED00E014ED00E07F
:103C4000002807DB4109044A00F01F0001238340DC
:103C500042F82130704700BF00E100E000280CDB93
:103C60004309064900F01F0020330122824041F839
:103C70002320BFF34F8FBFF36F8F704700E100E049
:103C800010B5044650B1437903F0FF0213B9027135
:103C9000FDF718FF01236371002010BD0120FCE730
:103CA000036810B5DAB2103A074C23F47F7323F09F
:103CB00003035F2A88BF04331821B2FBF1F1615C72
:103CC000C1658365184610BD8BF0010870B50446C8
:103CD000FFF758FF0546002C71D0022384F83530D9
:103CE0002268002384F83430136823F00103136042
:103CF00022681368D8072ED413683248A169184087
:103D0000D4E901352B43E5682B4325692B436569CD
:103D10002B43E5690B432B43256A2B430343606A1E
:103D2000042802BFD4E90B5635432B431360536973
:103D3000042823F0070343EA000332D1A06AE56AAE
:103D4000034375B391B9012820D030F0020128D186
:103D5000E90126D51DE0FFF715FF401B0528C7D94F
:103D600020236365032084F8350070BDB1F5005F42
:103D700013D1032815D801A151F820F0933D000874
:103D8000513D0008933D00088D3D0008B5F1C07F0E
:103D900007D1402363650120E5E70228F9D903280C
:103DA000D6D053612046FFF77BFFE26D3F2393405F
:103DB000836000200123606584F83530D5E7012059
:103DC000D3E700BF3F8010F038B5054620B390F828
:103DD0003530022BDCB21DD003681A6822F00102D4
:103DE00000241A6021221C605C609C60DC601C6105
:103DF0005A61FFF755FFEA6D3F239340C5E90F4431
:103E0000C5E91144C5E9134483606C6585F8344005
:103E100085F83540204638BD0124FBE770B50446DF
:103E2000866DFFF7AFFE94F83530022B054606D0BD
:103E3000802363650120002384F8343070BD23683B
:103E40001A6822F016021A605A6922F080025A613A
:103E5000226C0AB9A26C1AB11A6822F008021A6020
:103E60001A6822F001021A6023681B6813F001032C
:103E700008D1E16D3F228A40B260012284F83520EA
:103E80001846D8E7FFF77EFE401B0528ECD9202313
:103E90000320636584F83500CDE710B5044630B3E0
:103EA00090F8393003F0FF021BB980F83820FDF795
:103EB00021FE22686168022384F83930136823F4F4
:103EC00040330B431360536BA16823F007030B438C
:103ED0005363136CE16823F47F5323F03F030B43D8
:103EE000136400200123E06384F8393010BD012001
:103EF000FCE770477047036870B55E681D68F2079D
:103F0000044614D5E90512D51A6822F480721A60A5
:103F1000C26B42F00102C26301229A60042380F85E
:103F20003930002380F83830436903B19847B2062E
:103F300016D5AB0414D523681A6822F400521A600F
:103F400020229A60E36B43F00203E363042384F8C6
:103F50003930002384F8383063690BB12046984724
:103F6000300716D5290514D523681A6822F4006293
:103F70001A6008229A60E36B43F00403E3630423AE
:103F800084F83930002384F8383063690BB1204657
:103F9000984772070BD56B0509D523681A6822F478
:103FA00080621A6004229A602046FFF7A2FFB007E1
:103FB00014D5A90512D523681A6822F400721A6074
:103FC00002229A60E36BE363012384F83930002313
:103FD00084F8383023690BB120469847F20613D590
:103FE000EB0411D523681A6822F480521A6010225B
:103FF0009A60E36BE363012384F83930002384F88B
:1040000038302046FFF776FF70BD0000F0B590F81D
:104010003830012B4FF002032BD0012280F83930C9
:1040200080F8382000EB0113D3E907425D6A184F8E
:1040300044EA0242093C012C9CBF05F07F431A432D
:104040004FEA0116036888BF42EA056299B9596AC6
:1040500039400A435A62012C82699A6103D8426A44
:1040600022F07F429A62012380F83930002380F8E1
:1040700038301846F0BDD96939400A43DA618219EF
:10408000012C92691A619CBF25F07F451D62EAE709
:10409000F0FFFC002DE9F04107460D4614461E4690
:1040A000FFF770FD80463A68536FDB070AD5069923
:1040B00044EA062343EA014343EA8513D36600201A
:1040C000BDE8F081FFF75EFDA0EB0800B0F57A7F58
:1040D000E9D90320F4E7037C012B5DD003680022BB
:1040E000C3F8C420C3F8C820CA0748BFD3F8C42007
:1040F000816142BF6FEA12426FEA0242C3F8C420F4
:104100008A0742BFD3F8C42042F4F812C3F8C4208F
:104110004A0742BFD3F8C82042F00102C3F8C820C2
:104120000A0742BFD3F8C82042F00202C3F8C820F1
:10413000CA0642BFD3F8C82042F00C02C3F8C82018
:104140008A0642BFD3F8C82042F01002C3F8C82044
:104150004A0642BFD3F8C82042F02002C3F8C82064
:104160000A0642BFD3F8C82042F04002C3F8C82074
:10417000CA0542BFD3F8C82042F08002C3F8C82065
:104180008A0542BFD3F8C82042F4F852C3F8C820C9
:1041900000230374184670470220704773B50D461C
:1041A0000446002800F0A980437C0BB9FDF7C4FC4D
:1041B00003236374002300932368D3F8302442F070
:1041C0008072C3F83024D3F8303403F08073009346
:1041D000009BFFF7D7FC06462268D2F80C34D904BE
:1041E0007AD5D2F8303423F45E3323F4FE73C2F868
:1041F0003034D5E90003DB0243EA8003A868D2F833
:10420000301443EA00430B43C2F8303400230193D7
:10421000D2F8303443F00103C2F83034D2F83034ED
:1042200003F0010301930120019BFFF7B1FCFFF7AD
:10423000A9FC06462368D3F80C24D20556D5D3F83A
:10424000A020616842F00602C3F8A020D3F89420B1
:1042500022F00302C3F89420D3F894200A4342F0DA
:104260000102C3F89420D3F8A420E16822F00302ED
:10427000C3F8A420D3F8A4200A43C3F8A4209A6862
:10428000A16822F0FF029A609A680A439A606A68FD
:104290001B49012A38BF01224A43A96801F00301E2
:1042A0008A4029684FF4FA504143B2FBF1F2D3F847
:1042B000181421F03F01C3F81814D3F81814002083
:1042C0000A43C3F81824C3F8C400C3F8C800012384
:1042D0006061A061637407E0FFF754FC801BB0F5D8
:1042E0007A7F7FF679AF032002B070BDFFF74AFCFA
:1042F000801BB0F57A7F9DD9F5E70120F4E700BF78
:1043000000093D0070470368D3F80C24D10710B5AD
:10431000044608D5D3F80824D20704D50122C3F8EF
:104320001024FCF727FC2368D3F80C24910709D547
:10433000D3F80824920705D50222C3F8102420469A
:10434000FCF74CFCA369002B4ED02168D1F8BC20AF
:10435000D1F8C4301A40D1F8C030D1F8C8100B40A1
:1043600091B219B1616941F00101616112F4F81F64
:104370001EBF626942F002026261D80742BF6269F1
:1043800042F004026261990742BF626942F008028A
:10439000626113F00C0F1EBF626942F0100262618D
:1043A000DA0642BF626942F020026261980642BFAB
:1043B000626942F040026261590642BF626942F09E
:1043C000800262611A0642BF626942F480726261D1
:1043D00013F4F85F1EBF636943F40073636163699C
:1043E00013B12046FFF78EFF10BD037C012B0BD0CD
:1043F00003681A6B22F003021A631A6B11431963E4
:1044000000230374184670470220704730B5037CC0
:10441000012B6AD003680C685A6B42F001025A63A0
:10442000D3F8002422F00102C3F80024D3F80024BA
:1044300042F00102C3F80024DA6822F00302DA60D5
:10444000DA682243DA605A6922F007025A61D1E938
:1044500006522A434D695C692A4322435A611A690C
:104460004C6822F00F021A611A6922431A61D3F8CC
:10447000002422F00E02C3F80024D3F8002442EAFC
:104480004402C3F800245A6E8C68120C12045A6657
:104490005A6E22435A66D3F8002422F0F002C3F881
:1044A0000024D1E903252A434D6AD3F800442A4366
:1044B0000D6A896A2A432243C3F800249A6E22F0C7
:1044C00001029A669A6E0A439A66D3F8082442F06B
:1044D0000102C3F80824D3F8082442F00202C3F80A
:1044E000082400230374184630BD0220FCE70000B6
:1044F00030B5037C012B2AD00268164B946E234002
:104500009366D1E900352B438D68946E2B43CD68BB
:104510002B430D692B434D692B438D692B43CD698B
:104520002B430D6A2B434D6A2B438D6A2B43CD6A77
:10453000096B2B4323439366936E23F00203936628
:10454000936E0B43936600230374184630BD02201C
:10455000FCE700BFFF80F0FE037C012B0BD003685B
:10456000DA6A22F01F02DA62DA6A1143D9620023A2
:104570000374184670470220704730B5037C012B46
:1045800035D0D1E900439C4238BF1C460368D3F8BC
:10459000982002F0FC22C3F89820D3F8982042EA31
:1045A00004422243C3F89820D3F89C2002F400422E
:1045B000C3F89C20D1E90225120642EA05420D69A2
:1045C000D3F89C4049692A432243C3F89C20D3F87E
:1045D000A42022F47F42C3F8A420D3F8A42042EA06
:1045E0000122C3F8A42000230374184630BD022022
:1045F000FCE7000030B5037C012B5CD003680C683D
:104600009A688D6822F47F429A609A6842EA04228E
:104610009A609A6F4C6892B29A679A6F42EA044223
:104620009A679C6F254A14409C679C6F2C439C673B
:10463000DC6FCD681440DC67DC6F2C43DC67D3F89B
:1046400080400D691440C3F88040D3F880402C436B
:10465000C3F88040D3F884404D691440C3F88440C7
:10466000D3F884402C43C3F88440D3F8844024F02A
:104670008074C3F88440D3F884408D692C43C3F818
:104680008440D3F88840CD69096A1440C3F8884053
:10469000D3F888402C43C3F88840D3F88C4022409C
:1046A000C3F88C20D3F88C200A43C3F88C20002355
:1046B0000374184630BD0220FCE700BF0000FFFF76
:1046C000037C012B82B01CD0026800230093516848
:1046D00041F001015160516801F001010091009920
:1046E0000193D2F8041441F00801C2F80414D2F87E
:1046F0000424037402F008020192019A184602B0E1
:1047000070470220FBE7037C012B1FBF0268D2F831
:10471000043443F00403C2F804341DBF00230374BF
:1047200018460220704737B5057C012D044609D094
:1047300001250574069D0095FFF7ACFC002323744A
:1047400003B030BD0220FBE72DE9F84F1C46037C87
:10475000012BDDE90A9806460F46154655D0012380
:104760000374FFF70FFA8346D6F800C0DCF8743004
:1047700013F0010A1CD0032C21464FF0000228BF81
:1047800003218A4220D1A31ACCF8709042441BBB6B
:104790000134220245EA871192B2240241EA02055D
:1047A00004F47F042543CCF86C501846337409E0B8
:1047B000FFF7E8F9A0EB0B00B0F57A7FD4D986F8C3
:1047C00010A00320BDE8F88F18F802300132D000A5
:1047D000834049EA0309D4E7042B4FF000009E46CA
:1047E000014628BF4FF0040E12F801804FEAC109BC
:1047F000013108FA09F88E4540EA0800F4D1CCF8F6
:104800007000A3EB0E037244C1E70220DAE7037CD9
:10481000012B10D00368D3F81C2422F0C062C3F827
:104820001C24D3F81C2442EA4161C3F81C14002361
:104830000374184670470220704700002DE9F74FB7
:10484000DFF8C0916D4A00230D6801249C4004EA02
:10485000050CAC4340F0B9804D6805F003044FEA05
:1048600043080326671E06FA08F6012F6FEA0606BC
:1048700034D8876807EA060ECF6807FA08F747EAD0
:104880000E078760476827EA0C0EC5F300179F40A4
:1048900047EA0E074760C76807EA060E8F6807FAFF
:1048A00008F747EA0E07022CC76019D14FEAD30A6E
:1048B00000EB8A0A03F0070BDAF820704FEA8B0B43
:1048C0004FF00F0E0EFA0BFE27EA0E0E0F6907FAD5
:1048D0000BF747EA0E07CAF8207001E0032CDAD183
:1048E000076804FA08F437403C4315F4403F04607D
:1048F0006BD04FF0000ACDF804A0D9F84460404CCA
:1049000046F48046C9F84460D9F8446006F480460D
:104910000196019E23F0030606F1804606F59C36BB
:1049200003F0030ED6F808804FEA8E0E0F2707FA21
:104930000EF7A04228EA07074ED004F58064A04293
:104940004CD004F58064A0424AD004F58064A042B3
:1049500048D004F58064A04246D004F58064A042AB
:1049600044D004F58064A04242D004F58064A042A3
:1049700040D004F58064A0423ED004F58064A0429B
:104980000CBF09240A2404FA0EF43C43B460946872
:104990006FEA0C06EF0254BF34404CEA0404946002
:1049A000D468AF0254BF34404CEA0404D460546865
:1049B000AF0354BF34404CEA040454601468ED0360
:1049C00054BF34404CEA040414600133102B7FF4CC
:1049D0003BAF03B0BDE8F08F5446D4E70124D2E7E3
:1049E0000224D0E70324CEE70424CCE70524CAE759
:1049F0000624C8E70724C6E70824C4E7003C0140B2
:104A000000000240003802402DE9F04F494CDFF829
:104A10002C91DFF82CA1DFF82CB10022012303FA3E
:104A200002FE3EEA01050EEA01076CD122F0030501
:104A300005F1804505F59C353F4BD5F8088002F01F
:104A4000030C4FEA8C0C0F2606FA0CF6984206EA85
:104A500008085DD003F5806398425BD003F580635E
:104A6000984259D003F58063984257D003F580638C
:104A7000984255D0484555D0504555D0584555D009
:104A800003F58053984253D003F5806398420CBFDE
:104A900009230A2303FA0CF3434513D1236823EABD
:104AA00007032360636823EA07036360E36823EA7C
:104AB0000703E360A36823EA0703A360AB6823EA64
:104AC0000603AB60056856000323B34025EA0305DF
:104AD0000560D50800EB850502F0070C2E6A4FEA49
:104AE0008C0C0F2707FA0CF726EA07062E62C5681A
:104AF00025EA0305C560456825EA0E054560856819
:104B000025EA030383600132102A87D1BDE8F08FC4
:104B10000023BFE70123BDE70223BBE70323B9E777
:104B20000423B7E70523B5E70623B3E70723B1E777
:104B30000823AFE7003C014000000240001402409F
:104B400000180240001C02400369194214BF0120F2
:104B5000002070470AB1816170470904FBE743698F
:104B600001EA030221EA030141EA0241816170473F
:104B700001684B6913F480634FF0000210D06FF4AA
:104B800080634B612023026380F83D3080F83E2033
:104B9000036C80F83C2043F0040303640120704759
:104BA000184670472DE9F84606460F4691461D46C1
:104BB0004FEA114A3368BAF1010F0CBF5C699C6976
:104BC00027EA0404A4B2B4FA84F46409A14501D02C
:104BD000002017E06A1CEED0FEF7D4FF089BC01A35
:104BE000A84201D8002DE5D100232022336386F8A6
:104BF0003D2086F83E30326C86F83C3042F0200290
:104C000032640120BDE8F8862DE9F04104460F46E4
:104C1000164698462568686927EA000080B2B8B150
:104C20006B695A0516D52B6843F400732B606FF43B
:104C300080636B6120220023236384F83D2084F885
:104C40003E30226C42F00402226484F83C300120A1
:104C5000BDE8F081731CDED0FEF794FFA0EB0800E6
:104C6000B04201D8002ED5D100232022236384F83E
:104C70003D2084F83E30226C42F02002E4E770B51B
:104C800004460D46164621684B6913F0400301D0D7
:104C9000002010E04A69D2060ED56FF010024A617A
:104CA0002022236384F83D2084F83E30226C226465
:104CB00084F83C30012070BDFEF764FF801BA842E1
:104CC00001D8002DDFD100232022236384F83D206A
:104CD00084F83E30226C42F02002E8E770B50446CA
:104CE0000D46164623685B691B0601D5002070BD82
:104CF0002046FFF73DFFA8B96A1CF3D0FEF742FF3C
:104D0000801BA84201D8002DECD100232022236370
:104D100084F83D2084F83E30226C84F83C3042F028
:104D2000200222640120E2E72DE9F04315460268E3
:104D300085B0DDE90C789946136843F480731360FD
:104D40000E463B46CDF8008000224FF0011104468C
:104D5000FFF728FF236838B11B68DB0502D54FF445
:104D60000073236403200AE006F0FE061E61194961
:104D700043463A462046FFF747FF18B1012005B0E9
:104D8000BDE8F083236803905A6903929B690393FB
:104D9000424639462046039BFFF7A0FF40B1236CF3
:104DA000042B01BF2268136843F400731360E5E726
:104DB000B9F1010F236802D1EDB21D61DFE72A0AC4
:104DC0001A61394642462046FFF788FF0028E6D19F
:104DD0002368F1E7020001002DE9FF479A460368C6
:104DE00015461A6842F480621A601A68DDE90C7888
:104DF00042F480721A600E463B46CDF800800022D5
:104E00004FF001110446FFF7CDFE236848B11B683F
:104E1000DB0502D54FF400732364032004B0BDE822
:104E2000F0875FFA86F906F0FE061E612A494346BE
:104E30003A462046FFF7E8FE08B10120EEE7236876
:104E400003905A6903929B69039342463946204670
:104E5000039BFFF743FF40B1236C042B01BF226883
:104E6000136843F400731360E7E7BAF1010F236896
:104E70001AD1EDB242461D6139462046FFF72EFF9A
:104E800002460028E8D121680B6843F480730B6068
:104E90002046CDF800803B464FF00111FFF782FE1F
:104EA000226860B11368B3E72A0A1A61394642469C
:104EB0002046FFF713FF0028CED12368D9E749F039
:104EC00001031361044943463A462046FFF79CFE1E
:104ED000003818BF0120A1E70200010070B50446A8
:104EE0000D46164623685B695B0701D5002070BD3F
:104EF0002046FFF73DFEA8B96A1CF3D0FEF742FE3C
:104F0000801BA84201D8002DECD10023202223636E
:104F100084F83D2084F83E30226C84F83C3042F026
:104F2000200222640120E2E770B5044608B901209E
:104F300070BD90F83D3003F0FF021BB980F83C20B3
:104F4000FCF736FE242384F83D3023681A6822F0EB
:104F500001021A601A6842F400421A601A6822F4C8
:104F600000421A6001F014F83F4B65689D4294BFFF
:104F70003E4B3F4B98428CBF00230123002BD6D1E0
:104F80002268394E51683B4BB0FBF3F321F03F01EF
:104F90001943B542516088BF4FF49676116A88BFB5
:104FA000734321F03F0184BF4FF47A76B3FBF6F3ED
:104FB00001330B431362D169431E2B4821F44F4147
:104FC000854221F0FF0132D86D0040F6FC70B3FB42
:104FD000F5F30133034242D0C3F30B031943D1610C
:104FE000D4E907301168034321F0C0010B4313607B
:104FF0009168D4E9030321F40341034321F0FF0145
:105000000B439360D4E90530D168034321F0FF01DD
:105010000B43D360136843F0010313600020202387
:10502000206484F83D30206384F83E0080E7A06867
:1050300050B905EB4505B3FBF5F30133C3F30B039F
:105040007BB143F40043C9E719206843B3FBF0F395
:105050000133C3F30B0323B143F44043BEE70423FE
:10506000BCE70123BAE700BFA08601007F841E00D1
:10507000FF083D0040420F0010B5044698B1026899
:10508000242380F83D30136823F001031360FCF7FC
:10509000D3FD0020206484F83C0084F83D002063A8
:1050A00084F83E0010BD0120FCE700002DE9F74325
:1050B000044699460C9E0F469046FEF763FD94F811
:1050C0003D30202B054603D0022003B0BDE8F0831D
:1050D00000903C49192301222046FFF763FD002878
:1050E000F2D194F83C30012BEED02068012384F8F3
:1050F0003C300368D9075EBF036843F001030360D7
:10510000036823F400630360212384F83D304023C7
:1051100084F83E30002323640A9B6362BDF82C3080
:105120006385638D2385284BE362CDE900654B469B
:10513000424639462046FFF7F7FD00282AD00120D5
:10514000C3E7FFF7CBFD40B1236C042B01BF2268FE
:10515000136843F400731360F1E7636A27681A4623
:1051600012F8011B39616262628D218D013A92B29F
:1051700062857A69481E80B2520720850AD548B1F7
:105180005A783A6102336362638D013B02399BB204
:1051900021856385238D2A4631462046002BD0D1B8
:1051A000FFF79CFE0028CFD12268136843F40073F8
:1051B0001360202384F83D3084F83C0084F83E00DE
:1051C00083E700BF020010000000FFFF2DE9F0435D
:1051D000044687B09946109F0D469046FEF7D2FCD4
:1051E00094F83D30202B064604D00225284607B00F
:1051F000BDE8F08300907649192301222046FFF78D
:10520000D1FC0028F1D194F83C30012BEDD020687E
:10521000012384F83C300368DB075EBF036843F07A
:1052200001030360036823F400630360222384F80E
:105230003D30402384F83E30002323640E9B63629C
:10524000BDF83C306385638D2385624BE36229465C
:10525000CDE900764B4642462046FFF7BDFD0546A8
:1052600008B10125C2E7228D2368B2B902905A69BC
:1052700002929A690292029A1A6842F400721A60C3
:10528000DFF85481238D002B2CD1202284F83D207F
:1052900084F83C3084F83E30A8E7012A0AD11A6825
:1052A00022F480621A6003905A6903929A69039209
:1052B000039AE1E7022A0ED11A6822F480621A608A
:1052C0001A6842F400621A6004905A6904929B6959
:1052D0000493049BD4E705905A6905929B69059352
:1052E000059BCDE7032B56D8012B15D13246394605
:1052F0002046FFF7C4FC0028B3D123681A69636A0B
:105300001A70636A01336362238D013B2385638DC9
:10531000013B9BB26385B5E7022B00963B464FF0FD
:1053200000024146204619D1FFF73CFC002898D1E5
:1053300023681A6842F400721A601A69636A1A7064
:10534000626A531C6362238D013B2385638D013B9D
:105350009BB2638523681B695370D2E7FFF722FC79
:10536000024600287FF47DAF2368196821F480612C
:1053700019601969636A1970636A00960133636280
:10538000238D013B2385638D013B9BB263854146A1
:105390003B462046C8E7324639462046FFF76FFCB9
:1053A00000287FF45EAF23681A69636A1A70626A24
:1053B000531C6362238D013B2385638D013B9BB2AC
:1053C00063852368596949077FF55CAFC3E700BF70
:1053D000020010000000FFFF0400010090F83D00F3
:1053E000704700000068D1F800C0D20184328318F1
:1053F0002DE9F043C6685D684C68D1F8189005F453
:1054000070455D60C5680CF10107C5F30B45C6F337
:105410000B463D44264445EA06455D60C668CD68B6
:10542000C6F30A062E449D6805F470459D60C76862
:105430008D68C7F30A0701353D4445EA06459D607E
:105440001D690E6925F007051D614FF0000E1E61F4
:105450009D6991F8327091F83180C3F818E091F8A5
:10546000305045EA096545EA082545EA07459D614A
:105470005D6925F0FF055D614D695D61DD6925F4BC
:10548000E06525F00705DD61D1E907573D43DD61A2
:105490009D6A4D6AC3F828E09D62FEB1013E062E6A
:1054A0001ED8104DAD5DDE6A06F0E026DE62A4EB8C
:1054B0000C048E6AC96A6C436E43033444EA0644A2
:1054C000DC621C6B24F4FF6424F007041C63196382
:1054D000835843F001038350BDE8F0830425E2E7DD
:1054E0000125E0E793F0010838B50446002863D0B1
:1054F00090F8A13003F0FF021BB980F8A020FCF760
:10550000B9FB022384F8A13023689A6922F0704223
:105510009A61D4E901200243E06899690243206955
:1055200002430A439A619A68244960690A409A6072
:105530009A6842EA0042A06902439A60DA68E06928
:105540000A40DA60DA6842EA0042206A0243DA601E
:105550001A69606A0A401A611A6942EA0042A06A3E
:1055600002431A615A690A405A615A69E16A42EA79
:105570000142216B0A435A61DA6A94F8350094F8C3
:10558000361002F07F42DA62DD6A94F834202A4352
:1055900042EA002242EA0142DA625A6B42F0060213
:1055A0005A639A6942F001029A6100200123C4F80B
:1055B000A40084F8A13038BD0120FCE700F800F019
:1055C000704770477047036870B59E6B5D6B7207DC
:1055D000044614D5690712D55A6B22F004025A63A7
:1055E0000422DA63D0F8A43043F00103C0F8A430F9
:1055F000002380F8A12080F8A030FFF7E1FFB20778
:1056000016D5AB0714D523685A6B22F002025A63F1
:105610000222DA63D4F8A4301343C4F8A43004237C
:1056200084F8A130002384F8A0302046FFF7C8FF9B
:10563000F00710D5E9070ED523685A6B22F0010256
:105640005A630122DA63002384F8A12084F8A03091
:105650002046FFF7B6FF320711D52B070FD5236879
:105660005A6B22F008025A630822DA63012384F895
:10567000A130002384F8A0302046FFF7A3FF70BDBF
:105680002DE9F04190F8A030012B06460F469446D4
:105690004FF002001FD04FF0010886F8A08086F876
:1056A000A10034240D4604FB02640FCD38340FC42E
:1056B0000FCD0FC40FCD0FC42B6823603046624658
:1056C0003946FFF78FFE33680020C3F8248086F840
:1056D000A18086F8A000BDE8F081000030B590F808
:1056E000A030012B4FF0020329D080F8A1303423E1
:1056F00003FB02039B6C23B3013B062B23D8134C03
:10570000E45C0368D201843213446143DA6A22F014
:10571000FF5222F4F812DA620D4A556A45F001058B
:105720005562DD6A45EA0141D962536A43F00103DB
:105730005362012380F8A130002380F8A03018467E
:1057400030BD0424DDE70124DBE700BF93F001084E
:105750000068014037B500230193184B184D1A6CAF
:1057600042F080521A641B6C03F080530193019B3A
:10577000144B01221A64FEF705FA04466B68DA033B
:105780000BD5104B0E4D01225A64FEF7FBF904466F
:105790006B689B030AD5002006E0FEF7F3F9001BB7
:1057A000B0F57A7FEAD9032003B030BDFEF7EAF9FD
:1057B000001BB0F57A7FEBD9F5E700BF0038024057
:1057C0000070004000000E422DE9F0474E6A3EB1E5
:1057D000B2F1406F1FBF8B6A046803F1FF3323618E
:1057E000D1F818A0D1E9077EBAF1000F4CD04C696E
:1057F00005680B68D1F834804FEA844C4AEA060405
:10580000D1E90B0944EA020ABEF1000F24D08E68E8
:10581000EE614AEA0E040E699FB13B43034343EA3B
:105820000903C86843EA08033343034343EA0C030C
:105830002343B2F1406F6B6101D04B68AB61BDE8AF
:10584000F087034343EA090343EA0803334343EA87
:105850000C0323436B61F2E767B13B43034343EA25
:105860000903C86843EA0803034343EA0C0343EA15
:105870000A03DEE7034343EA090343EA080444EA70
:105880000C0343EA0A03E5E7BEF1000F29D046EA1C
:105890000E0504684E698B68E361D1E90B8E0B69D4
:1058A000D1F834C01543B6048FB13B4343EA080333
:1058B000C86843EA0E0343EA0C03034333432B4314
:1058C000B2F1406F6361BAD04B68A361B7E743EAB6
:1058D000080343EA0E0343EA0C0333432B4363619B
:1058E000ADE7AFB1CC6A006846EA07031343234330
:1058F0000C6B23434C6B2343CC6823434C69B2F1BC
:10590000406F43EA8443436199D04B68836196E7D3
:10591000002E94D0CB6A0068334313430A6B1343C1
:105920004A6B13434A6943EA8243436187E72DE99F
:10593000F041DDF8188004460E4615461F462268E1
:105940009368334214BF01230023AB4201D10020EE
:1059500012E0B8F1FF3FF3D0FEF714F9C01B404549
:1059600002D8B8F1000FEAD1042384F84130636C07
:1059700043F0010363640120BDE8F08130B585B0D8
:105980000446FEF7FFF80346002C47D094F8412068
:1059900002F0FF014AB9039084F840102046FCF75A
:1059A0009BF941F28832039BA2642068A1680268D7
:1059B000013922F4F85242EA01220260A26C0092FC
:1059C000202100222046FFF7B2FF10BBE569E36803
:1059D00022682B43256A11682B43656821F07F41BB
:1059E00043EA056321F0D0010B431360D4E905318C
:1059F0000B432169556843EA0143094929400B4398
:105A00005360136843F0010313600123606484F85A
:105A10004130002384F8403005B030BD0120FBE761
:105A2000FEF8E0FF10B5044668B10268136823F081
:105A300001031360FCF7AAF90020606484F84100B8
:105A400084F8400010BD0120FCE72DE9F043044636
:105A500085B017468946FEF795F894F84020012A4C
:105A6000034634D0012284F8402094F84120012AD2
:105A70005FFA82F84FF0020627D100226264039099
:105A800084F84160009720212046FFF750FF05462B
:105A9000A0B9024649462046FFF796FED9F82420D1
:105AA000039B4AB90097424631462046FFF73FFF25
:105AB000054618B92368DE6084F84180002384F825
:105AC0004030284605B0BDE8F0833546F6E70225AC
:105AD000F7E72DE9FF41044615461E468846FEF7C6
